:100000000C9464000C948C000C948C000C948C0068
:100010000C948C000C948C000C948C000C948C0030
:100020000C948C000C948C000C948C000C948C0020
:100030000C948C000C948C000C948C000C948C0010
:100040000C94090D0C948C000C94AD0E0C94FF0EC6
:100050000C948C000C948C000C948C000C948C00F0
:100060000C941F0A0C948C00000000002400270050
:100070002A0000000000250028002B0000000000DE
:1000800023002600290004040404040404040202DA
:100090000202020203030303030301020408102007
:1000A0004080010204081020010204081020000012
:1000B0000007000201000003040600000000000029
:1000C00000008E00BB086E1011241FBECFEFD8E0D9
:1000D000DEBFCDBF12E0A0E0B1E0E2EDF5E202C08C
:1000E00005900D92A036B107D9F714E0A0E6B2E072
:1000F00001C01D92A73FB107E1F710E0C8ECD0E0C6
:1001000004C02297FE010E94E312C23CD107C9F746
:100110000E94C5100C94E7120C940000EF92FF921D
:100120000F931F938EE593E068EC70E048E050E099
:100130002BE030E00CE010E0EDE0EE2EF12C0E9420
:10014000CE0C1F910F91FF90EF9008954F925F9208
:100150006F927F928F929F92AF92BF92CF92DF92D7
:10016000EF92FF920F931F93DF93CF93CDB7DEB73C
:1001700064970FB6F894DEBF0FBECDBF4C0197FD5C
:1001800005C06C0191E0A92EB12C07C0CC24DD2460
:10019000C81AD90AAA24AA94BA2C209180033091B3
:1001A0008103E0917E03F0917F03C9018E1B9F0BB9
:1001B00065E070E00E947D12CB01FA83E9833A8703
:1001C00029879B012E0F3F1F2E173F0708F49F0121
:1001D0003C832B83B901680F791F6E177F0708F4E2
:1001E000BF017E836D83680F791F6E177F0708F448
:1001F000BF0178876F83209178033091790336951A
:100200002795FE013B96AE014D5E5F4F1C141D0409
:1002100054F4C601959587952817390708F4C90144
:100220009183808302C01182108280819181880F26
:10023000991FC81AD90A3296E417F50739F7C6018B
:1002400062E070E00E949112562E472E6B8B7C8BE1
:100250000E945F0D00E010E03E010894611C711CDB
:10026000BBE0EB2EF12CEC0EFD1EF301E00FF11FB5
:1002700040815181662757FD6095762F8EE593E08A
:100280000E94CE0BF701E00FF11F80819181A89EA3
:10029000B001A99E700DB89E700D11248EE593E0FB
:1002A0000E946C0C0E5F1F4F0A301105F1F68E0193
:1002B000075F1F4FA3E1EA2EF12CEC0EFD1E3E015D
:1002C000089461087108F80140815181662757FD43
:1002D0006095762F8EE593E00E94CE0BF70180812A
:1002E0009181A89EB001A99E700DB89E700D112439
:1002F0008EE593E00E946C0C025010408EEF9FEF51
:10030000E80EF91E06151705F1F6852D942D880FB8
:10031000991FC81AD90ACA9CB001CB9C700DDA9CEF
:10032000700D11248EE593E00E946C0C0E945F0D0D
:1003300080917A0390917B03892B51F080917C030B
:1003400090917D03880D991D90937D0380937C038C
:1003500080917C0390917D03E0E881309E0730F02E
:1003600088539F4F90937D0380937C0380917C03FF
:1003700090917D0368EC70E00E947D1290937D0364
:1003800080937C0364960FB6F894DEBF0FBECDBF9A
:10039000CF91DF911F910F91FF90EF90DF90CF9061
:1003A000BF90AF909F908F907F906F905F904F9095
:1003B000089589E060917A030E94580E8AE0609166
:1003C0007A030E94580E089510927D0310927C03C8
:1003D00081E090E090937B0380937A0389E061E071
:1003E0000E94190E8AE061E00E94190E0E94D90154
:1003F00087E090E090937F0380937E0384E190E018
:1004000090938103809380038AE090E09093790336
:100410008093780308950F931F93CF93DF938C01FC
:10042000FC0111821082C0E0D0E085ED94E00E94D2
:10043000D50FFFEF8F3F9F07C1F38A309105C9F1B8
:100440008D309105B1F1809751F4209719F020E09B
:1004500030E039C085ED94E00E94F50FE6CF85EDE0
:1004600094E00E94F50FAC01405350404A305105D2
:1004700040F5F80120813181F9E12A393F0708F57B
:1004800089E12939380719F446305105D0F4C901FA
:1004900073E0880F991F7A95E1F7220F331F820FBF
:1004A000931F480F591FF80151834083C1E0D0E0EA
:1004B000BCCF80E090E0CD2B11F481E090E09C0176
:1004C00002C021E030E0C901DF91CF911F910F916F
:1004D0000895EF92FF920F931F93CF93DF938C01B8
:1004E000FC0111821082EE24FF24C0E0D0E005C0A0
:1004F000EE24EA94FE2CC1E0D0E085ED94E00E9469
:10050000D50FFFEF8F3F9F07C1F38A30910509F4A4
:1005100057C08D30910509F453C0809751F420974E
:1005200019F020E030E056C085ED94E00E94F50F10
:10053000E4CF85ED94E00E94F50FE114F10431F46D
:100540008D329105A9F221E0E22EF12C9C0120537D
:1005500030402A303105E0F5A901F8018081918110
:10056000FFEFEF16FFEFFF0679F423EF84339207D6
:100570007CF1509541955F4F8453934F79F4FFEF91
:10058000483F5F075CF424C02CE08D3C920704F5E3
:100590008C5C9C4019F448305105D4F4F8018081FA
:1005A00091819C01B3E0220F331FBA95E1F7880FC8
:1005B000991F280F391F240F351F318320839BCFAC
:1005C00080E090E0CD2B11F481E090E09C0102C02E
:1005D00021E030E0C901DF91CF911F910F91FF9091
:1005E000EF90089585ED94E00E94D50F0A9731F0C1
:1005F00085ED94E00E94D50F0D9711F480E00895E9
:1006000085ED94E00E94F50F089585ED94E00E9439
:10061000C10F18161906CCF785ED94E00E94F50F6E
:100620008A3011F08D3089F70895CF93DF93EC0174
:100630006115710519F420E030E00FC0DB010D9069
:100640000020E9F71197A61BB70BE881F98102801A
:10065000F381E02DAD0109959C01C901DF91CF9196
:10066000089585ED94E060E071E00E94150308951F
:1006700085ED94E066E071E00E9415030895DF9334
:10068000CF93CDB7DEB728970FB6F894DEBF0FBE75
:10069000CDBF823709F46EC083374CF48F36E1F159
:1006A000803709F456C08E3609F093C029C08437CC
:1006B00039F084370CF46DC08A3709F08AC082C0E3
:1006C000CE0101960E940B02892B09F082C00E9484
:1006D000310389819A81909379038093780385ED22
:1006E00094E06CE071E00E943C126091780370919C
:1006F000790385ED94E04AE050E00E949B116BC0C5
:10070000CE0103960E946902892B09F062C08B8199
:100710009C810E94A6005AC0CE0101960E940B0245
:10072000892B09F056C089819A81009729F410928B
:100730007B0310927A030AC08F3F910509F049C0EC
:1007400081E090E090937B0380937A030E94D9012B
:100750003DC085ED94E06CE071E00E943C12609138
:100760007C0370917D0385ED94E04AE050E00E94A7
:100770009B112CC085ED94E06CE071E00E943C126E
:1007800085ED94E068EC70E04AE050E00E941D12B4
:100790001DC0CE0105960E940B02892BD1F4CE011B
:1007A00007960E940B02892BA1F48D819E81909364
:1007B0007F0380937E038F8198859093810380933C
:1007C000800304C010927D0310927C030E943103C9
:1007D00002C00E94380328960FB6F894DEBF0FBE01
:1007E000CDBFCF91DF9108951F93182F803130F442
:1007F00085ED94E06EE071E00E943C1285ED94E09E
:10080000612F40E150E00E94B8111F9108958F922E
:100810009F92AF92BF92DF92EF92FF920F931F933E
:10082000CF93DF93D82E4B015A010E945F0D7B01BD
:100830008C0185ED94E060E171E00E943C1285ED51
:1008400094E06D2D0E94001185ED94E062E171E06D
:100850000E943C1280915A0390915B03A0915C032B
:10086000B0915D03E81AF90A0A0B1B0B85ED94E0C1
:10087000B801A7012AE030E00E948C1185ED94E0D8
:1008800065E171E00E943C12C0E0D0E03DC06532FD
:1008900029F085ED94E00E94001135C02196F40105
:1008A000EC0FFD1F0081043619F00837D1F40BC09E
:1008B00085010E5F1F4FF5016081718185ED94E028
:1008C0004AE050E00AC085010E5F1F4FF5016081CC
:1008D000718185ED94E040E150E00E940A125801D8
:1008E00012C085ED94E067E171E00E943C12602F38
:1008F000772767FD709585ED94E00E942E1085EDB9
:1009000094E00E9408112196F401EC0FFD1F608114
:10091000662309F0BCCF85ED94E00E9408110E9487
:100920005F0D60935A0370935B0380935C03909315
:100930005D03DF91CF911F910F91FF90EF90DF90BA
:10094000BF90AF909F908F900895DF93CF93CDB7D6
:10095000DEB7809158039091590397FD09C09E011D
:10096000295F3F4F85E46D817E81A9010E940704C4
:10097000CF91DF9108959C018430910590F000D0D3
:1009800000D085E291E0EDB7FEB792838183348396
:1009900023830E94A50480E00F900F900F900F908A
:1009A000089580918203882319F0822F8C5908952D
:1009B000822F805A08950F931F93182F062F8AECC9
:1009C00093E068E670E00E9481088AEC93E0612F72
:1009D0000E9403098AEC93E0602F0E9403098AECCD
:1009E00093E00E944609182F8823A9F000D000D078
:1009F000EDB7FEB7319688E391E0ADB7BEB712967A
:100A00009C938E931197128313820E94A5040F90DA
:100A10000F900F900F90212F30E0309521953F4F90
:100A2000C9011F910F9108951F9314E1812F60E078
:100A30000E94DB04882331F0282F332727FD3095CF
:100A4000C90105C01F5F183189F7109283031F91F8
:100A500008950F931F93162F042F992787FD9095C4
:100A60000E94BB04682F882319F42CE93FEF33C0A0
:100A70008AEC93E00E947708612F772767FD7095D5
:100A80008AEC93E00E9403098AEC93E0602F0E94B5
:100A900003098AEC93E00E944609182F8823A9F0E5
:100AA00000D000D0EDB7FEB7319688E391E0ADB746
:100AB000BEB712969C938E931197128313820E9455
:100AC000A5040F900F900F900F90812F90E0222798
:100AD0003327281B390BC9011F910F9108950F93DC
:100AE0001F93CF93DF93062F90E00E94BB04182F33
:100AF000882319F42CE93FEF42C08AEC93E0612F80
:100B00000E9477088AEC93E0602F0E9403098AEC28
:100B100093E00E944609C82FD0E02097A9F000D0AA
:100B200000D088E391E0EDB7FEB792838183D48350
:100B3000C3830E94A504222733272C1B3D0B0F9053
:100B40000F900F900F901BC08AEC93E0612F70E024
:100B500041E050E00E94570905C085ED94E06EE247
:100B60000E9400118AEC93E00E948B081816190667
:100B7000A4F78AEC93E00E949408282F30E0C90182
:100B8000DF91CF911F910F910895BF92CF92DF9285
:100B9000EF92FF920F931F93CF93DF93B090820356
:100BA000EE24E1E0CE2ED12CE0928203FF2429C076
:100BB00080918203992787FD90959601281B390B18
:100BC000C901880F991F880F991F0F2D080F10E07A
:100BD0008F2D6C2F0E946F05F80165E0EE0FFF1F4F
:100BE0006A95E1F7E01BF10BEC0FFD1FE05AFD4F9A
:100BF00080832196CF31D105D9F6F39434E0F316F2
:100C000019F0C0E0D0E0D4CFE39482E0E81661F6BA
:100C1000C0E0D0E051E0E52EF12C85ED94E067E4F2
:100C200071E00E943C128C2F0E94F40385ED94E049
:100C300069E471E00E943C1211E01093820300E02D
:100C400080918203992787FD90959701281B390B86
:100C5000C901880F991F880F991F800F90E0FC0130
:100C600035E0EE0FFF1F3A95E1F7E81BF90BEC0FAB
:100C7000FD1FE05AFD4F80810E94F40385ED94E052
:100C80006CE471E00E943C120F5F0430C9F685ED00
:100C900094E069E471E00E943C12115070F685ED19
:100CA00094E00E9408112196CF31D10509F0B5CF0B
:100CB000B0928203DF91CF911F910F91FF90EF903F
:100CC000DF90CF90BF900895FF920F931F93282F2E
:100CD00080918303853074F000D08EE491E0EDB70D
:100CE000FEB7928381830E94A50428E33FEF0F9013
:100CF0000F9039C02C3329F403E017E1A0E4FA2E59
:100D00001AC0822F6FE00E947112082F822F0E945A
:100D10007112292F192F169516951C5E30E023703D
:100D20003070220F331F81E090E002C0880F991FBE
:100D30002A95E2F7F82E802F612F0E946F054F2D24
:100D400050E0482B592B802F612F0E9429058823C2
:100D500019F0282F30E007C0809183038F5F8093C4
:100D6000830320E030E0C9011F910F91FF900895A7
:100D70000F931F93CF93DF938AEC93E00E945B095C
:100D800011E01093820380E060E00E946F0581E033
:100D900060E00E946F0582E060E00E946F0583E0E2
:100DA00060E00E946F0580E061E00E94DB04109328
:100DB0008203C0E0D0E00BE711E08C2F60E00E94DE
:100DC0006F0581309105D1F000D000D000D0EDB793
:100DD000FEB73196ADB7BEB712961C930E9311971E
:100DE000D383C283958384830E94A5048DB79EB765
:100DF00006960FB6F8949EBF0FBE8DBF2196C430E5
:100E0000D105D9F681E060E00E94DB040E94140560
:100E100012E0812F6FEF0E94DB041F5F1231C9F7D0
:100E200082E16FEF0E94DB048CE16FE10E94DB0442
:100E300081E080938203DF91CF911F910F910895FC
:100E40000E94E4010E94B8060895DF93CF93CDB7C6
:100E5000DEB78091580390915903845F91404CF024
:100E60009E01295F3F4F89E46D817E81A9010E9427
:100E70000704CF91DF9108950F931F938C0100D049
:100E800000D085EA91E0EDB7FEB7928381831483A9
:100E900003830E94250710935903009358030F9072
:100EA0000F900F900F901F910F9108950F931F9324
:100EB00005ED14E0C80140E051EE60E070E00E94F2
:100EC0003A0FC8016DEB71E00E943C12C8016BE360
:100ED00072E00E943F1284EF91E00E943C070E9462
:100EE00020070E9431031F910F9108951F93DF93F4
:100EF000CF9300D0CDB7DEB7182F803721F08337DE
:100F000011F0893639F4CE0101960E940B02892B2B
:100F100009F07EC01F3609F450C0103754F4123661
:100F200009F467C0193609F46EC01F3309F070C0A8
:100F300007C0103709F444C0133709F069C025C051
:100F40000E94C50585ED94E060ED71E00E943C12C1
:100F500060918203772767FD709585ED94E04AE004
:100F600050E00E941D1285ED94E067EE71E00E9452
:100F70003C1260918303772767FD709585ED94E0BF
:100F80004AE050E00E941D1246C029813A812D336B
:100F9000310588F000D000D086EF91E0EDB7FEB7C4
:100FA00092838183348323830E94A5040F900F9042
:100FB0000F900F902DC0822F21C00E94140520C0D9
:100FC00089819A818230910518F580938203892B5B
:100FD00021F000D08DE092E003C000D084E292E0E6
:100FE000EDB7FEB7928381830E9425070F900F9083
:100FF00012C00E941405892B59F48CE30E946406E8
:10100000892B49F005C08CE169810E94DB0403C093
:101010000E94380302C00E9431030F900F90CF91BD
:10102000DF911F910895DF93CF9300D0CDB7DEB746
:1010300085ED94E00E94C10F02970CF450C085ED3D
:1010400094E00E94F50F8D3009F449C08A3009F40C
:1010500046C08936E9F08A362CF48F3341F0873662
:10106000D1F52BC08C3621F18337A9F51CC00E9425
:10107000F202863781F585ED94E06CE071E00E9424
:101080003C1285ED94E06BE372E00E943F1208C0D1
:1010900062E370E080E090E00E94850D0E942007EE
:1010A0000E9431031AC00E94F2020E943F0315C041
:1010B0000E94F2020E94760710C0CE0101960E94A3
:1010C0000B02892B19F00E94380309C089819A818B
:1010D0000E943C07E5CF0E9438030E9405030F9051
:1010E0000F90CF91DF9108950E941308089581E039
:1010F0008093C9036093A6031092C7031092C8039C
:10110000089581E08093C9036093A6031092C703FA
:101110001092C80308952091A50330E08091A403A4
:10112000281B3109C90108954091A4038091A503AA
:10113000481718F02FEF3FEF0AC0E42FF0E0EC570C
:10114000FC4F8081282F30E04F5F4093A403C901FA
:101150000895E091A4038091A503E81718F0EFEF3C
:10116000FFEF06C0F0E0EC57FC4F8081E82FF0E085
:10117000CF01089508951092CD031092CC0388EE0C
:1011800093E0A0E0B0E08093CE039093CF03A093D0
:10119000D003B093D10384E492E09093CB03809387
:1011A000CA030895CF92DF92EF92FF920F931F939D
:1011B000CF93DF937C016B018A018091C90388235F
:1011C000A1F0C0E0D0E00DC0D701ED91FC91D601B7
:1011D000AC0FBD1F0190F081E02DC7016C91099506
:1011E0002196C017D10780F304C0CB01642F0E9461
:1011F000040AC801DF91CF911F910F91FF90EF90EA
:10120000DF90CF900895DF93CF930F92CDB7DEB7E5
:10121000FC0169838091C9038823C9F08091C803C8
:10122000803238F081E090E09383828320E030E0E8
:1012300015C08091C703E82FF0E0E955FC4F998174
:1012400090838F5F8093C7038093C80305C0CE014E
:10125000019661E00E94040A21E030E0C9010F908C
:10126000CF91DF9108950F93062F8091A60367EA2F
:1012700073E04091C80321E00E94AF091092C703B8
:101280001092C8031092C9030F91089561E00E9463
:1012900033090895413208F040E2862F64E873E094
:1012A0000E9466091092A4038093A503089521E08B
:1012B0000E944A0908951092A4031092A503109267
:1012C000C7031092C8030E94B00B0895382F413213
:1012D00010F040E042C08091D6038823E1F791E00E
:1012E0009093D6032093D8038FEF809343041092FA
:1012F000FE0341504093FF034F5F9093D7038091CB
:10130000D703330F832B8093D7038091D903813088
:1013100041F41092D9038091D7038093BB0085ECF0
:1013200001C085EE8093BC008091D6038130E1F34B
:101330008091FE03841710F44091FE0320E030E01A
:101340000AC0FB01E20FF31FD901A252BC4F8C91DE
:1013500080832F5F3F4F2417A0F3842F08950F93AE
:101360001F93582F122F413210F081E04AC0809114
:10137000D6038823E1F782E08093D6030093D80355
:101380008FEF809343041092FE034093FF03AEED72
:10139000B3E0FB0102C081918D938E2F861B8417D1
:1013A000D0F31092D7038091D703550F852B8093EC
:1013B000D7038091D903813041F41092D9038091F1
:1013C000D7038093BB0085EC01C085EE8093BC0001
:1013D000112321F08091D6038230E1F38091430400
:1013E0008F3F11F480E00DC080914304803211F4EE
:1013F00082E007C080914304803311F084E001C093
:1014000083E01F910F910895482F613210F081E021
:1014100008958091D603843011F082E0089560939E
:101420002104A0E0B4E0842F9C01F90102C0819165
:101430008D938E2F841B8617D0F380E008951F9222
:101440000F920FB60F9211242F933F934F935F93F8
:101450006F937F938F939F93AF93BF93EF93FF937C
:101460008091B90090E0887F90708036910509F4F2
:10147000F2C081369105CCF58832910509F47BC024
:1014800089329105B4F48031910509F46FC081313E
:1014900091053CF4009709F447C1089709F04FC142
:1014A00065C08831910509F466C0809709F047C18D
:1014B00082C08034910509F4A4C08134910544F4BC
:1014C0008033910509F482C0C89709F038C189C0FA
:1014D0008035910509F489C08835910509F496C0D5
:1014E0008834910509F02BC1AEC08839910509F403
:1014F00013C189399105ECF48837910509F4ABC023
:10150000893791054CF48836910509F4A4C08037D9
:10151000910509F014C19FC08838910509F4FCC0F9
:101520008039910509F49DC08038910509F007C103
:1015300098C0803B910509F4C6C0813B91054CF4ED
:10154000803A910509F49FC0883A910509F0F7C0E7
:10155000BAC0803C910509F4E3C0883C910509F4C8
:10156000DFC0883B910509F0EAC0C2C08091D70373
:101570008093BB00CFC09091FE038091FF0398172A
:1015800068F49091FE03E92FF0E0E252FC4F808175
:101590008093BB009F5F9093FE03BCC08091D803F3
:1015A000882309F44BC085ED8093BC008091BC007A
:1015B00084FDFCCFC2C080E28093430485ED80931C
:1015C000BC008091BC0084FDFCCFB7C080E3809359
:1015D000430485ED8093BC008091BC0084FDFCCF6A
:1015E000ACC088E3809343049BC08091FE0390913C
:1015F000BB00E82FF0E0E252FC4F90838F5F8093B6
:10160000FE039091FE038091FF0382C08091FE0350
:101610009091BB00E82FF0E0E252FC4F90838F5F87
:101620008093FE038091D803882341F085ED809359
:10163000BC008091BC0084FDFCCF7FC081E0809322
:10164000D90384EA6EC085ED8093BC008091BC0014
:1016500084FDFCCF72C083E08093D60310924204D5
:1016600059C080914204803208F056C080914204F3
:101670009091BB00E82FF0E0EE5DFB4F90838F5F11
:101680008093420447C080914204803230F4E0915C
:101690004204F0E0EE5DFB4F108285ED8093BC00CC
:1016A0008091BC0084FDFCCF1092D603609142046F
:1016B000E091DC03F091DD0382E294E070E00995B3
:1016C000109242042DC084E08093D603109220042F
:1016D00010922104E091DA03F091DB0309958091E7
:1016E0002104882329F481E08093210410920004CE
:1016F00090912004E92FF0E0E050FC4F808180932E
:10170000BB009F5F9093200490912004809121045E
:10171000981710F485EC01C085E88093BC000FC0D9
:1017200085EC8093BC0009C01092430485ED809342
:10173000BC008091BC0084FDFCCF1092D603FF91C9
:10174000EF91BF91AF919F918F917F916F915F9139
:101750004F913F912F910F900FBE0F901F901895B2
:101760001092D60381E08093D8031092D90382E1CE
:1017700061E00E94580E83E161E00E94580EE9EB9F
:10178000F0E080818E7F808380818D7F808388E4FC
:101790008093B80085E48093BC000895CF92DF92D7
:1017A000EF92FF920F931F936C017A018B01FC0162
:1017B00020853185442737FD4095542F60E67AEE29
:1017C00080E090E00E94C612CA01B901A801970109
:1017D0000E94C612F60124833583468357831F91E6
:1017E0000F91FF90EF90DF90CF9008950F931F938C
:1017F000CF93DF93EC018B018A859B85029731F5AE
:101800006130710589F06230710524F4611571054C
:1018100041F01CC06230710571F063307105B1F4A4
:101820000DC08E8560E002C08E8561E00E94580E7A
:10183000888961E009C08E8561E002C08E8560E024
:101840000E94580E888960E00E94580E8A859B8508
:101850000497E9F501301105A1F0023011051CF4DF
:10186000012B41F034C002301105D1F003301105D5
:1018700071F51DC08E8561E00E94580E888960E078
:1018800006C08E8560E00E94580E888961E00E9443
:10189000580E8A8961E00E94580E8C8960E015C05C
:1018A0008E8560E00E94580E888961E006C08E85B2
:1018B00061E00E94580E888960E00E94580E8A8973
:1018C00060E00E94580E8C8961E00E94580EDF9102
:1018D000CF911F910F9108950F931F93CF93DF9393
:1018E000EC011616170624F481E090E099838883B2
:1018F00077FF02C0198218828B0177FF46C01095CE
:1019000001951F4F42C00E94510D2E893F89488D7D
:10191000598D621B730B840B950B2C813D814E817D
:101920005F81621773078407950768F30E94510D62
:101930006E8B7F8B888F998F888199812C853D85CF
:10194000019761F42F5F3F4F3D872C8788859985EC
:101950002817390771F41D861C860BC0232B21F430
:10196000888599859D878C878C859D8501979D8726
:101970008C87015010408C859D8564E070E00E944A
:101980009112BC01CE010E94F60B0115110509F060
:10199000BACFDF91CF911F910F910895CF92DF922F
:1019A000EF92FF920F931F936C01842FF60115861F
:1019B00014861382128211821082168A178A108E60
:1019C000118E7187608746875787318B208B138BE9
:1019D000028BF58AE48A61E00E94190EF601808983
:1019E00061E00E94190EF601828961E00E94190EE1
:1019F000F601848961E00E94190E84E090E0F6010E
:101A0000938782871F910F91FF90EF90DF90CF9087
:101A100008951F920F920FB60F9211242F933F93A8
:101A20008F939F93AF93BF93809148049091490403
:101A3000A0914A04B0914B0430914C040196A11D31
:101A4000B11D232F2D5F2D3720F02D570196A11D9D
:101A5000B11D20934C048093480490934904A093B3
:101A60004A04B0934B048091440490914504A091A2
:101A70004604B09147040196A11DB11D8093440412
:101A800090934504A0934604B0934704BF91AF914F
:101A90009F918F913F912F910F900FBE0F901F90AC
:101AA00018958FB7F89420914804309149044091DB
:101AB0004A0450914B048FBFB901CA0108959FB7E2
:101AC000F89420914404309145044091460450918B
:101AD000470486B5A89B06C08F3F21F02F5F3F4F7C
:101AE0004F4F5F4F9FBF542F432F322F2227280F76
:101AF000311D411D511D82E0220F331F441F551F10
:101B00008A95D1F7B901CA0108959B01AC017FB74D
:101B1000F8948091440490914504A0914604B091BA
:101B2000470466B5A89B05C06F3F19F00196A11D3B
:101B3000B11D7FBFBA2FA92F982F8827860F911D1F
:101B4000A11DB11D62E0880F991FAA1FBB1F6A95D6
:101B5000D1F7BC012DC0FFB7F89480914404909157
:101B60004504A0914604B0914704E6B5A89B05C082
:101B7000EF3F19F00196A11DB11DFFBFBA2FA92F8C
:101B8000982F88278E0F911DA11DB11DE2E0880FAF
:101B9000991FAA1FBB1FEA95D1F7861B970B885E7A
:101BA0009340C8F2215030404040504068517C4F33
:101BB000211531054105510571F60895789484B5D4
:101BC000826084BD84B5816084BD85B5826085BD39
:101BD00085B5816085BDEEE6F0E08081816080831F
:101BE000E1E8F0E010828081826080838081816002
:101BF0008083E0E8F0E0808181608083E1EBF0E0C9
:101C0000808184608083E0EBF0E08081816080836C
:101C1000EAE7F0E080818460808380818260808355
:101C20008081816080838081806880831092C10080
:101C30000895CF93DF93482F50E0CA0186569F4FF7
:101C4000FC0134914A575F4FFA018491882369F16E
:101C500090E0880F991FFC01E859FF4FA591B491BE
:101C6000FC01EE58FF4FC591D491662351F42FB774
:101C7000F8948C91932F909589238C938881892354
:101C80000BC0623061F42FB7F8948C91932F90952C
:101C900089238C938881832B88832FBF06C09FB7AD
:101CA000F8948C91832B8C939FBFDF91CF910895F3
:101CB000482F50E0CA0182559F4FFC012491CA0170
:101CC00086569F4FFC0194914A575F4FFA01349119
:101CD000332309F440C0222351F1233071F0243022
:101CE00028F42130A1F0223011F514C02630B1F0D3
:101CF0002730C1F02430D9F404C0809180008F7760
:101D000003C0809180008F7D8093800010C084B5D7
:101D10008F7702C084B58F7D84BD09C08091B000EB
:101D20008F7703C08091B0008F7D8093B000E32F48
:101D3000F0E0EE0FFF1FEE58FF4FA591B4912FB7C3
:101D4000F894662321F48C919095892302C08C919C
:101D5000892B8C932FBF089508951F920F920FB671
:101D60000F9211242F933F934F938F939F93EF9351
:101D7000FF938091C00082FD1DC04091C60020915C
:101D80008D0430918E042F5F3F4F2F733070809100
:101D90008F04909190042817390771F0E0918D0419
:101DA000F0918E04E35BFB4F408330938E042093CD
:101DB0008D0402C08091C600FF91EF919F918F9199
:101DC0004F913F912F910F900FBE0F901F9018953C
:101DD000E091E104F091E204E05CFF4F8191919188
:101DE00020813181805C9F4F821B930B60E470E007
:101DF0000E949112892B11F00E94AC0E08951F923F
:101E00000F920FB60F9211242F933F938F939F93AE
:101E1000EF93FF932091D1043091D2048091D304A9
:101E20009091D4042817390731F48091C1008F7D37
:101E30008093C10014C0E091D304F091D404EF5614
:101E4000FB4F20818091D3049091D40401968F732D
:101E500090709093D4048093D3042093C600FF9194
:101E6000EF919F918F913F912F910F900FBE0F9007
:101E70001F901895AF92BF92DF92EF92FF920F934F
:101E80001F93CF93DF93EC017A018B01DD24403067
:101E900081EE580780E0680780E0780711F0DD24C4
:101EA000D39491E0A92EB12CEC89FD89DD2069F055
:101EB000C50108A002C0880F991F0A94E2F7808329
:101EC00060E079E08DE390E005C0108260E874E89E
:101ED0008EE190E0A80197010E94A41221503040A9
:101EE00040405040569547953795279580E12030E2
:101EF000380720F0DD2011F0DD24D6CFE889F989FC
:101F00003083EA89FB89208319A2EE89FF89408109
:101F100021E030E0C9010C8C02C0880F991F0A949F
:101F2000E2F7482B4083EE89FF894081C9010D8C7F
:101F300002C0880F991F0A94E2F7482B4083EE896C
:101F4000FF894081C9010E8C02C0880F991F0A9435
:101F5000E2F7482B4083EE89FF8980810F8C02C015
:101F6000220F331F0A94E2F7209528232083DF9164
:101F7000CF911F910F91FF90EF90DF90BF90AF90A6
:101F80000895DC011C96ED91FC911D97E05CFF4FDC
:101F90008191919120813181805C9F4F821B930BB5
:101FA00060E470E00E9491120895DC011C96ED91AE
:101FB000FC911D97E05CFF4F20813181E054F0409F
:101FC000DF01AE5BBF4F8D919C91119728173907A8
:101FD00019F42FEF3FEF07C08D919C91E80FF91F87
:101FE0008081282F30E0C9010895DC011C96ED9115
:101FF000FC911D97E05CFF4F20813181E054F0405F
:10200000DF01AE5BBF4F8D919C9111972817390767
:1020100019F42FEF3FEF10C08D919C911197E80FAD
:10202000F91F20818D919C91119701968F7390706B
:1020300011969C938E9330E0C9010895DC0191962E
:102040008C919197882339F05496ED91FC91559796
:10205000808186FFF9CF91961C920895CF93DF93EC
:10206000EC01EE85FF85E05CFF4F20813181E0547B
:10207000F0402F5F3F4F2F733070DF01AE5BBF4FDB
:102080008D919C91119728173907D1F3E05CFF4F90
:1020900080819181E054F040E80FF91F6083EE8564
:1020A000FF85E05CFF4F31832083EE89FF8920812B
:1020B00081E090E00F8C02C0880F991F0A94E2F72C
:1020C000282B208381E089A3EC89FD8980818064AD
:1020D000808381E090E0DF91CF9108951092D80441
:1020E0001092D70488EE93E0A0E0B0E08093D9048A
:1020F0009093DA04A093DB04B093DC0484E592E0CF
:102100009093D6048093D5048DE494E09093E204F8
:102110008093E10481E994E09093E4048093E304E4
:1021200085EC90E09093E6048093E50484EC90E0E5
:102130009093E8048093E70480EC90E09093EA04A5
:102140008093E90481EC90E09093EC048093EB049D
:1021500082EC90E09093EE048093ED0486EC90E0A6
:102160009093F0048093EF0484E08093F10483E083
:102170008093F20487E08093F30485E08093F40475
:1021800081E08093F50408950895CF93DF930E9432
:10219000DE0D0E94C4100E945607C8EEDEE00E94C9
:1021A00074082097E1F30E94E80EF9CFCF92DF92F6
:1021B000EF92FF920F931F93CF93DF937C016B01FC
:1021C0008A01C0E0D0E00FC0D6016D916D01D7014A
:1021D000ED91FC910190F081E02DC7010995C80FA8
:1021E000D91F015010400115110571F7CE01DF9183
:1021F000CF911F910F91FF90EF90DF90CF900895B6
:10220000DC01ED91FC910190F081E02D099508959C
:10221000EF92FF920F931F938C01DC01ED91FC91E3
:102220000190F081E02D6DE009957C01D801ED91E0
:10223000FC910190F081E02DC8016AE009959C01B4
:102240002E0D3F1DC9011F910F91FF90EF90089532
:102250004F925F927F928F929F92AF92BF92CF9256
:10226000DF92EF92FF920F931F93DF93CF93CDB73F
:10227000DEB7A1970FB6F894DEBF0FBECDBF2C011D
:10228000742ECB01223008F42AE019A231E2C32EC9
:10229000D12CCC0EDD1E822E9924AA24BB24672DBE
:1022A000752FA50194010E94A41279018A01C80129
:1022B000B701A50194010E945212472D461B0894B4
:1022C000C108D1084A3014F4405D01C0495CF601F0
:1022D0004083E114F1040105110521F07E2C5F2DEE
:1022E000C801DDCFC201B6010E941503A1960FB649
:1022F000F894DEBF0FBECDBFCF91DF911F910F913C
:10230000FF90EF90DF90CF90BF90AF909F908F9015
:102310007F905F904F900895DC012115310541F4C5
:10232000ED91FC910190F081E02D642F09950895C5
:102330000E9428110895CF92DF92EF92FF920F939F
:102340001F936C017B019A0100E010E0B801A70126
:102350000E948C118C01C6010E940811080F191FE0
:10236000C8011F910F91FF90EF90DF90CF900895DB
:10237000EF92FF920F931F939A01E62EFF2400E045
:1023800010E0B801A7010E948C111F910F91FF90DE
:10239000EF900895CF92DF92EF92FF920F931F93E9
:1023A000CF93DF93EC016A017B012115310541F4E4
:1023B000E881F9810190F081E02D642F09951FC01B
:1023C0002A303105D1F477FF17C0E881F9810190F7
:1023D000F081E02D6DE209958C0144275527BA0163
:1023E0004C195D096E097F09CE012AE00E9428116F
:1023F0009801280F391F04C02AE00E9428119C016F
:10240000C901DF91CF911F910F91FF90EF90DF9065
:10241000CF900895EF92FF920F931F937B019A0143
:102420000027F7FC0095102FB801A7010E94CA11E0
:102430001F910F91FF90EF900895CF92DF92EF924E
:10244000FF920F931F936C017B019A010027F7FC09
:102450000095102FB801A7010E94CA118C01C60176
:102460000E940811080F191FC8011F910F91FF90BA
:10247000EF90DF90CF9008950E9415030895EF929A
:10248000FF920F931F937C010E9415038C01C701DB
:102490000E940811080F191FC8011F910F91FF908A
:1024A000EF900895629FD001739FF001829FE00D2D
:1024B000F11D649FE00DF11D929FF00D839FF00DC3
:1024C000749FF00D659FF00D9927729FB00DE11D6F
:1024D000F91F639FB00DE11DF91FBD01CF0111244C
:1024E0000895991B79E004C0991F961708F0961B70
:1024F000881F7A95C9F780950895AA1BBB1B51E1E7
:1025000007C0AA1FBB1FA617B70710F0A61BB70B63
:10251000881F991F5A95A9F780959095BC01CD0108
:10252000089597FB092E07260AD077FD04D0E5DF32
:1025300006D000201AF4709561957F4F0895F6F744
:10254000909581959F4F0895A1E21A2EAA1BBB1B5F
:10255000FD010DC0AA1FBB1FEE1FFF1FA217B3076F
:10256000E407F50720F0A21BB30BE40BF50B661F85
:10257000771F881F991F1A9469F760957095809549
:1025800090959B01AC01BD01CF01089597FB092EE9
:1025900005260ED057FD04D0D7DF0AD0001C38F432
:1025A00050954095309521953F4F4F4F5F4F08957F
:1025B000F6F790958095709561957F4F8F4F9F4F5F
:1025C0000895EE0FFF1F0590F491E02D0994F89403
:0225D000FFCF3B
:1025D2003E41434B0A003E4E414B0A003E00300052
:1025E2005B005D3A003A0042616420666F726D6181
:1025F200743A202500496E76616C696420636869CB
:10260200702049443A2564002020493243206572F3
:10261200726F723A2564007D003A20002000546FE8
:102622006F206D616E79204C45447320616C726538
:10263200616479206C69742C206E6F7420656E6100
:10264200626C696E67206D6F7265005265676973AF
:10265200746572207365747570206661696C656457
:1026620020636869702025642C204D4F4445313D1C
:10267200307825780053657474696E67206C6F67D3
:10268200206C6576656C20746F202564004361645C
:102692007363616E20437562696B28544D293A0059
:1026A2003E7072696D61727920626F61726420613D
:1026B20063746976653A003E6E756D5F6C6564732E
:1026C200206C69743A004C4544206368616E6E6503
:1026D2006C20746F6F206269673A25640053656CE1
:1026E2006563746564207072696D61727920626FCE
:1026F2006172640053656C6563746564206368612C
:10270200696E656420626F61726400312E3032003E
:10271200000000000309D2088B089408A908BA082F
:10272200000000002E10D610C10FF50FD50F1E109D
:00000001FF
